:100000000C945A000C9483000C9483000C9483008D
:100010000C9483000C9483000C9483000C94830054
:100020000C9483000C9483000C9483000C94830044
:100030000C9483000C9483000C9483000C94830034
:100040000C9483000C9483000C9414030C94830090
:100050000C9483000C9483000C9483000C94830014
:100060000C9483000C9483000C9483000C94830004
:100070000C9483000C9483000C9483000C948300F4
:100080000C9483000C9483000C9483000C948300E4
:100090000C9483000C9483000C9483000C948300D4
:1000A0000C9483000C9483000C9483000C948300C4
:1000B0000C94830011241FBECFEFD8E0DEBFCDBF6C
:1000C00014BE0FB6F894A895809160008861809363
:1000D0006000109260000FBE11E0A0E0B1E0E0E728
:1000E000F9E002C005900D92AA3DB107D9F721E0D1
:1000F000AAEDB1E001C01D92A23FB207E1F70E9454
:10010000F5000C94B6040C940000CF92DF92EF92AD
:10011000FF920F931F93CF93DF936C017B018A01B2
:10012000C0E0D0E015C0DE01AA0FBB1FAA0FBB1FA5
:10013000AE0DBF1DFE01EE0FFF1FEC0DFD1D4D911D
:100140005D916D917C91808191810E9450022196F8
:10015000C017D10744F3DF91CF911F910F91FF900A
:10016000EF90DF90CF900895FC0142E050E06EE008
:1001700071E08AE191E009950895FC0142E050E0C8
:1001800066E071E086E191E009950895892B41F4DC
:1001900040E050E0BA0180E291E00E9450020AC0C3
:1001A00040E050E0BA0181E391E00E94500281E01A
:1001B00080931E0185E890E00E94B40085E890E0FD
:1001C0000E94BD000895CF92DF922FEF87EA91E65B
:1001D000215080409040E1F700C0000080E090E0B6
:1001E000F6010995DF90CF90089587E690E00E9490
:1001F000C00140E050E0BA018EE491E00E9450025C
:1002000080911E018111FCCF8091EA019091EB0158
:100210000E9466018111F4CF8091EA019091EB0177
:100220000E946E01FC01E084F18402851385248123
:1002300035814681578160817181828193810F2E42
:10024000F6ECCF2EF0E0DF2EF02D0E94E30080913F
:10025000EA019091EB010E947401D2CF0F931F939A
:10026000CF93DF938C01EB0184E090E00E94950333
:10027000F80191838083FC01D183C08313821282B1
:10028000DF91CF911F910F910895FC0180819181A1
:100290000895FC01828193810895FC017383628338
:1002A0000895FC01808191810E942D040895CF93CF
:1002B000DF93EC0182E090E00E94950399838883AC
:1002C000FC0111821082DF91CF910895FC01208101
:1002D000318181E0232B09F080E00895FC018081C9
:1002E00091810E94450108950F931F93CF93DF934F
:1002F0008C01FC01C081D181CE010E944901F8012D
:1003000091838083CE010E945101CE010E942D0471
:10031000DF91CF911F910F910895EF92FF920F936C
:100320001F93CF93DF9300D0CDB7DEB77C01CE0112
:1003300001960E942E01F70100811181C7010E94E0
:100340006601882351F089819A81F7019183808326
:100350000EC0C8010E9449018C01C8010E944901D8
:10036000892BB9F769817A81C8010E944D010F90EC
:100370000F90DF91CF911F910F91FF90EF90089513
:100380009093C5008093C400E1ECF0E0808188691F
:100390008083E2ECF0E08081806280838AEE91E0ED
:1003A0000E9457018CEE91E00E94570178940895C5
:1003B0009091C00095FFFCCF8093C6000895EF9206
:1003C000FF920F931F93CF93DF937C01FC01019069
:1003D0000020E9F731978F01081B190BC0E0D0E02E
:1003E00007C0F701EC0FFD1F80810E94D801219604
:1003F000C8019927C817D907A4F3DF91CF911F919E
:100400000F91FF90EF9008950F931F93CF93DF9379
:1004100000D000D0CDB7DEB769837A838B839C830D
:1004200000E010E00BC0E1E0F0E0EC0FFD1FE00F9A
:10043000F11F80810E94D8010F5F1F4F043011050A
:1004400094F30F900F900F900F90DF91CF911F9129
:100450000F910895CF92DF92EF92FF92CF93DF93A7
:10046000EC016A017B0182E00E94D801FE0101904B
:100470000020E9F7CF0101978C1B0E94D801CE0123
:100480000E94DF01C701B6010E94040283E00E94BE
:10049000D801DF91CF91FF90EF90DF90CF9008953A
:1004A000CF92DF92EF92FF92CF93DF93FC01019006
:1004B0000020E9F73197E81BF90B3796E03DF1058D
:1004C00010F56A017B01EC0187E090E00E94950342
:1004D000DC011196DC93CE931296CD92DD92ED92D3
:1004E000FC921597FE0101900020E9F73197EC1B73
:1004F000FD0BE95F1696EC93BC018091EC019091A5
:10050000ED010E948D01DF91CF91FF90EF90DF9080
:10051000CF900895CF93DF938091EC019091ED01FE
:100520000E946601882339F040E050E0BA0181EB77
:1005300091E00E945002C0E0D0E01BC08091EC012D
:100540009091ED010E946E01FC012681C20FD11D28
:10055000C13DD10570F442815381648175818081F0
:1005600091810E942A028091EC019091ED010E94FC
:1005700074018091EC019091ED010E94660181115E
:1005800003C0C13DD105D0F2DF91CF9108950F9303
:100590001F93CF93DF9300D000D0CDB7DEB78C018F
:1005A00019821A821B821C828CE090E00E949503C3
:1005B000BC0140E050E02BC0A1E0B0E0AC0FBD1F9B
:1005C000A20FB31FFA01EE0FFF1FEE0FFF1FE20F86
:1005D000F31F3196E00FF11F90819C932F5F3F4FE7
:1005E00002C020E030E02430310534F3FA01EE0F90
:1005F000FF1FEE0FFF1FE60FF71F89819A81AB8166
:10060000BC8180839183A283B3834F5F5F4F43306C
:1006100051053CF3CB010F900F900F900F90DF919D
:10062000CF911F910F9108951F920F920FB60F92C5
:1006300011242F933F934F935F936F937F938F93E7
:100640009F93AF93BF93EF93FF938091DB01882338
:1006500009F453C08091C00082FD10921F01809167
:10066000DA01E82FF0E09091C600E452FE4F90834B
:100670008F5F8093DA018E3009F046C080911F01B0
:10068000882379F18091E901833059F58091DC016B
:100690008C30D1F028F48A3041F08B3091F028C0B2
:1006A0008D30B1F08E30D1F023C08CED91E00E94FE
:1006B000C702BC018091EA019091EB010E948D017B
:1006C00017C010921E0114C081E080931E0110C05B
:1006D000E0E6F0E0808188648083FFCF0E948A0298
:1006E00007C040E050E0BA018BEB91E00E9450025D
:1006F0001092DA011092DB0107C08091C6008230AF
:1007000019F481E08093DB01FF91EF91BF91AF91EC
:100710009F918F917F916F915F914F913F912F9119
:100720000F900FBE0F901F9018950F931F93CF93AC
:10073000DF938230910510F482E090E0E091F001C7
:10074000F091F10120E030E0A0E0B0E0309719F145
:10075000408151810281138148175907C8F08417DD
:10076000950769F4109731F012960C93129713962F
:100770001C9327C00093F0011093F10122C02115B2
:10078000310519F04217530718F49A01BD01EF0122
:10079000DF01F801DBCF21153105F9F0281B390BFA
:1007A0002430310580F48A819B816115710521F027
:1007B000FB019383828304C09093F1018093F00145
:1007C000FE01329644C0FE01E20FF31F8193919324
:1007D00022503109398328833AC02091EE013091AB
:1007E000EF01232B41F4209102013091030130935A
:1007F000EF012093EE0120910001309101012115BC
:10080000310541F42DB73EB74091040150910501E7
:10081000241B350BE091EE01F091EF01E217F30795
:10082000A0F42E1B3F0B2817390778F0AC014E5F60
:100830005F4F2417350748F04E0F5F1F5093EF01AD
:100840004093EE018193919302C0E0E0F0E0CF018C
:10085000DF91CF911F910F910895CF93DF93009770
:1008600009F481C0FC01329713821282A091F00139
:10087000B091F101109781F420813181820F931F93
:100880002091EE013091EF012817390751F5F093CF
:10089000EF01E093EE0167C0ED0120E030E0CE17FC
:1008A000DF0740F44A815B819E0141155105F1F05B
:1008B000EA01F5CFD383C28340815181840F951F14
:1008C000C817D90759F488819981840F951F02961A
:1008D000918380838A819B81938382832115310553
:1008E00029F4F093F101E093F0013DC0E901FB83AD
:1008F000EA8349915991C40FD51FEC17FD0761F4A4
:1009000080819181840F951F0296E90199838883E4
:10091000828193819B838A83E0E0F0E012968D913F
:100920009C911397009719F0FD01DC01F7CF8D9191
:100930009C9111979D012E5F3F4F820F931F209135
:10094000EE013091EF012817390769F4309729F447
:100950001092F1011092F00102C013821282B09342
:10096000EF01A093EE01DF91CF910895F894FFCFAE
:100970000000F2012000CDCC5C408FC2D53FCDCC31
:100980005CC00000C8425A016B017F019701010160
:10099000576179706F696E74207265616368656410
:1009A00000576179706F696E74206E6F7420726584
:1009B00061636865642E20506175736564005374CB
:1009C000617274696E67207570004C696768742085
:1009D000737065656420666C7578004A657420657F
:1009E0006E67696E65206361706163697479004F39
:1009F00070746963616C20766973696F6E206163DE
:100A000063757261637900496E6572746961206D06
:100A1000616E6970756C61746F7220706F7765724A
:100A200000537461747573204F4B00576179706F78
:100A3000696E74204E6F742050726F6365737365B6
:0A0A4000643A204572726F720000E4
:00000001FF
